{
  "abi": [
    {
      "inputs": [
        {
          "internalType": "address",
          "name": "_axiomV2QueryAddress",
          "type": "address"
        },
        {
          "internalType": "uint64",
          "name": "_callbackSourceChainId",
          "type": "uint64"
        },
        {
          "internalType": "bytes32",
          "name": "_axiomCallbackQuerySchema",
          "type": "bytes32"
        }
      ],
      "stateMutability": "nonpayable",
      "type": "constructor"
    },
    {
      "anonymous": false,
      "inputs": [
        {
          "indexed": false,
          "internalType": "address",
          "name": "token",
          "type": "address"
        }
      ],
      "name": "AirdropTokenAddressUpdated",
      "type": "event"
    },
    {
      "anonymous": false,
      "inputs": [
        {
          "indexed": false,
          "internalType": "address",
          "name": "axiomCallbackCallerAddr",
          "type": "address"
        }
      ],
      "name": "AxiomCallbackCallerAddrUpdated",
      "type": "event"
    },
    {
      "anonymous": false,
      "inputs": [
        {
          "indexed": false,
          "internalType": "bytes32",
          "name": "axiomCallbackQuerySchema",
          "type": "bytes32"
        }
      ],
      "name": "AxiomCallbackQuerySchemaUpdated",
      "type": "event"
    },
    {
      "anonymous": false,
      "inputs": [
        {
          "indexed": true,
          "internalType": "uint64",
          "name": "sourceChainId",
          "type": "uint64"
        },
        {
          "indexed": false,
          "internalType": "address",
          "name": "callerAddr",
          "type": "address"
        },
        {
          "indexed": true,
          "internalType": "bytes32",
          "name": "querySchema",
          "type": "bytes32"
        },
        {
          "indexed": true,
          "internalType": "bytes32",
          "name": "queryHash",
          "type": "bytes32"
        }
      ],
      "name": "AxiomV2Call",
      "type": "event"
    },
    {
      "anonymous": false,
      "inputs": [
        {
          "indexed": true,
          "internalType": "address",
          "name": "user",
          "type": "address"
        },
        {
          "indexed": true,
          "internalType": "bytes32",
          "name": "queryHash",
          "type": "bytes32"
        },
        {
          "indexed": false,
          "internalType": "uint256",
          "name": "numTokens",
          "type": "uint256"
        },
        {
          "indexed": false,
          "internalType": "bytes32[]",
          "name": "axiomResults",
          "type": "bytes32[]"
        }
      ],
      "name": "ClaimAirdrop",
      "type": "event"
    },
    {
      "anonymous": false,
      "inputs": [
        {
          "indexed": true,
          "internalType": "address",
          "name": "user",
          "type": "address"
        },
        {
          "indexed": false,
          "internalType": "string",
          "name": "error",
          "type": "string"
        }
      ],
      "name": "ClaimAirdropError",
      "type": "event"
    },
    {
      "anonymous": false,
      "inputs": [
        {
          "indexed": true,
          "internalType": "address",
          "name": "previousOwner",
          "type": "address"
        },
        {
          "indexed": true,
          "internalType": "address",
          "name": "newOwner",
          "type": "address"
        }
      ],
      "name": "OwnershipTransferred",
      "type": "event"
    },
    {
      "inputs": [],
      "name": "axiomCallbackCallerAddr",
      "outputs": [
        {
          "internalType": "address",
          "name": "",
          "type": "address"
        }
      ],
      "stateMutability": "view",
      "type": "function"
    },
    {
      "inputs": [],
      "name": "axiomCallbackQuerySchema",
      "outputs": [
        {
          "internalType": "bytes32",
          "name": "",
          "type": "bytes32"
        }
      ],
      "stateMutability": "view",
      "type": "function"
    },
    {
      "inputs": [
        {
          "internalType": "uint64",
          "name": "sourceChainId",
          "type": "uint64"
        },
        {
          "internalType": "address",
          "name": "callerAddr",
          "type": "address"
        },
        {
          "internalType": "bytes32",
          "name": "querySchema",
          "type": "bytes32"
        },
        {
          "internalType": "bytes32",
          "name": "queryHash",
          "type": "bytes32"
        },
        {
          "internalType": "bytes32[]",
          "name": "axiomResults",
          "type": "bytes32[]"
        },
        {
          "internalType": "bytes",
          "name": "callbackExtraData",
          "type": "bytes"
        }
      ],
      "name": "axiomV2Callback",
      "outputs": [],
      "stateMutability": "nonpayable",
      "type": "function"
    },
    {
      "inputs": [],
      "name": "axiomV2QueryAddress",
      "outputs": [
        {
          "internalType": "address",
          "name": "",
          "type": "address"
        }
      ],
      "stateMutability": "view",
      "type": "function"
    },
    {
      "inputs": [],
      "name": "callbackSourceChainId",
      "outputs": [
        {
          "internalType": "uint64",
          "name": "",
          "type": "uint64"
        }
      ],
      "stateMutability": "view",
      "type": "function"
    },
    {
      "inputs": [
        {
          "components": [
            {
              "internalType": "uint64",
              "name": "sourceChainId",
              "type": "uint64"
            },
            {
              "internalType": "bytes32",
              "name": "dataQueryHash",
              "type": "bytes32"
            },
            {
              "components": [
                {
                  "internalType": "uint8",
                  "name": "k",
                  "type": "uint8"
                },
                {
                  "internalType": "bytes32[]",
                  "name": "vkey",
                  "type": "bytes32[]"
                },
                {
                  "internalType": "bytes",
                  "name": "computeProof",
                  "type": "bytes"
                }
              ],
              "internalType": "struct IAxiomV2Query.AxiomV2ComputeQuery",
              "name": "computeQuery",
              "type": "tuple"
            },
            {
              "components": [
                {
                  "internalType": "address",
                  "name": "callbackAddr",
                  "type": "address"
                },
                {
                  "internalType": "bytes4",
                  "name": "callbackFunctionSelector",
                  "type": "bytes4"
                },
                {
                  "internalType": "uint8",
                  "name": "resultLen",
                  "type": "uint8"
                },
                {
                  "internalType": "bytes",
                  "name": "callbackExtraData",
                  "type": "bytes"
                }
              ],
              "internalType": "struct IAxiomV2Query.AxiomV2Callback",
              "name": "callback",
              "type": "tuple"
            },
            {
              "internalType": "uint64",
              "name": "maxFeePerGas",
              "type": "uint64"
            },
            {
              "internalType": "uint32",
              "name": "callbackGasLimit",
              "type": "uint32"
            },
            {
              "internalType": "bytes",
              "name": "dataQuery",
              "type": "bytes"
            }
          ],
          "internalType": "struct AutonomousAirdrop.AxiomV2QueryData",
          "name": "axiomData",
          "type": "tuple"
        }
      ],
      "name": "claimAirdrop",
      "outputs": [],
      "stateMutability": "payable",
      "type": "function"
    },
    {
      "inputs": [
        {
          "internalType": "address",
          "name": "",
          "type": "address"
        }
      ],
      "name": "hasClaimed",
      "outputs": [
        {
          "internalType": "bool",
          "name": "",
          "type": "bool"
        }
      ],
      "stateMutability": "view",
      "type": "function"
    },
    {
      "inputs": [],
      "name": "owner",
      "outputs": [
        {
          "internalType": "address",
          "name": "",
          "type": "address"
        }
      ],
      "stateMutability": "view",
      "type": "function"
    },
    {
      "inputs": [
        {
          "internalType": "address",
          "name": "",
          "type": "address"
        }
      ],
      "name": "querySubmitted",
      "outputs": [
        {
          "internalType": "bool",
          "name": "",
          "type": "bool"
        }
      ],
      "stateMutability": "view",
      "type": "function"
    },
    {
      "inputs": [],
      "name": "renounceOwnership",
      "outputs": [],
      "stateMutability": "nonpayable",
      "type": "function"
    },
    {
      "inputs": [],
      "name": "token",
      "outputs": [
        {
          "internalType": "contract IERC20",
          "name": "",
          "type": "address"
        }
      ],
      "stateMutability": "view",
      "type": "function"
    },
    {
      "inputs": [
        {
          "internalType": "address",
          "name": "newOwner",
          "type": "address"
        }
      ],
      "name": "transferOwnership",
      "outputs": [],
      "stateMutability": "nonpayable",
      "type": "function"
    },
    {
      "inputs": [
        {
          "internalType": "address",
          "name": "_token",
          "type": "address"
        }
      ],
      "name": "updateAirdropToken",
      "outputs": [],
      "stateMutability": "nonpayable",
      "type": "function"
    },
    {
      "inputs": [
        {
          "internalType": "address",
          "name": "_axiomCallbackCallerAddr",
          "type": "address"
        }
      ],
      "name": "updateCallbackCallerAddr",
      "outputs": [],
      "stateMutability": "nonpayable",
      "type": "function"
    },
    {
      "inputs": [
        {
          "internalType": "bytes32",
          "name": "_axiomCallbackQuerySchema",
          "type": "bytes32"
        }
      ],
      "name": "updateCallbackQuerySchema",
      "outputs": [],
      "stateMutability": "nonpayable",
      "type": "function"
    }
  ],
  "bytecode": {
    "object": "0x60a060405234801561001057600080fd5b5060405161157e38038061157e83398101604081905261002f916100db565b6001600160a01b0383166080526100453361008b565b600080546001600160401b03909316600160a01b02600160a01b600160e01b031990931692909217909155600180546001600160a01b0319163017905560025550610136565b600080546001600160a01b038381166001600160a01b0319831681178455604051919092169283917f8be0079c531659141344cd1fd0a4f28419497f9722a3daafe3b4186f6b6457e09190a35050565b6000806000606084860312156100f057600080fd5b83516001600160a01b038116811461010757600080fd5b60208501519093506001600160401b038116811461012457600080fd5b80925050604084015190509250925092565b60805161141f61015f6000396000818161017a0152818161048d0152610582015261141f6000f3fe6080604052600436106100e85760003560e01c806373b2e80e1161008a578063cd1cd72511610059578063cd1cd725146102b7578063da8c7e7a146102db578063f2fde38b146102fb578063fc0c546a1461031b57600080fd5b806373b2e80e146102095780638da5cb5b14610249578063a34c1eb414610267578063ab72fc091461028757600080fd5b80632a75d3be116100c65780632a75d3be1461016857806345e1ef8d146101b457806351b17b29146101d4578063715018a6146101f457600080fd5b8063034606e0146100ed5780630a50ec5c1461010f5780631b50f73414610155575b600080fd5b3480156100f957600080fd5b5061010d610108366004610e80565b61033b565b005b34801561011b57600080fd5b5060005461013790600160a01b900467ffffffffffffffff1681565b60405167ffffffffffffffff90911681526020015b60405180910390f35b61010d610163366004610e99565b61037f565b34801561017457600080fd5b5061019c7f000000000000000000000000000000000000000000000000000000000000000081565b6040516001600160a01b03909116815260200161014c565b3480156101c057600080fd5b5060015461019c906001600160a01b031681565b3480156101e057600080fd5b5061010d6101ef366004610f56565b610577565b34801561020057600080fd5b5061010d61067a565b34801561021557600080fd5b5061023961022436600461102d565b60046020526000908152604090205460ff1681565b604051901515815260200161014c565b34801561025557600080fd5b506000546001600160a01b031661019c565b34801561027357600080fd5b5061010d61028236600461102d565b61068e565b34801561029357600080fd5b506102396102a236600461102d565b60036020526000908152604090205460ff1681565b3480156102c357600080fd5b506102cd60025481565b60405190815260200161014c565b3480156102e757600080fd5b5061010d6102f636600461102d565b6106e4565b34801561030757600080fd5b5061010d61031636600461102d565b61073a565b34801561032757600080fd5b5060055461019c906001600160a01b031681565b6103436107b3565b60028190556040518181527f215a17e0015e11cebc3087027513f0b70572c3b3341a76ef38fbcbbb8193c6ae906020015b60405180910390a150565b3360009081526004602052604090205460ff16156103f25760405162461bcd60e51b815260206004820152602560248201527f557365722068617320616c726561647920636c61696d6564207468697320616960448201526407264726f760dc1b60648201526084015b60405180910390fd5b3360009081526003602052604090205460ff16156104525760405162461bcd60e51b815260206004820181905260248201527f51756572792068617320616c7265616479206265656e207375626d697474656460448201526064016103e9565b336000908152600360205260409020805460ff1916600117905561048161047c60c083018361104a565b61080d565b60006001600160a01b037f00000000000000000000000000000000000000000000000000000000000000001663ea53dce4346104c06020860186611091565b60208601356104d260408801886110ac565b6104df60608901896110cc565b6104ef60a08a0160808b01611091565b6104ff60c08b0160a08c016110e2565b61050c60c08c018c61104a565b6040518a63ffffffff1660e01b815260040161052f989796959493929190611233565b60206040518083038185885af115801561054d573d6000803e3d6000fd5b50505050506040513d601f19601f820116820180604052508101906105729190611335565b505050565b336001600160a01b037f000000000000000000000000000000000000000000000000000000000000000016146106095760405162461bcd60e51b815260206004820152603160248201527f4178696f6d5632436c69656e743a2063616c6c6572206d757374206265206178604482015270696f6d563251756572794164647265737360781b60648201526084016103e9565b6040516001600160a01b03881681528590879067ffffffffffffffff8b16907f8c4d7c8c39bd8567a2e06cd74f2e95db120e4aeeb5092fca49fb9f3ea13f0fc19060200160405180910390a46106608888886109ac565b6106708888888888888888610ace565b5050505050505050565b6106826107b3565b61068c6000610e30565b565b6106966107b3565b600580546001600160a01b0319166001600160a01b0383169081179091556040519081527f3d74e308a5601bae6228e9545413c210aad9d550ccd35b1f55805a9bd2cc6dfb90602001610374565b6106ec6107b3565b600180546001600160a01b0319166001600160a01b0383169081179091556040519081527f1b1580fc32a58bb9d566344e104e66168ade97b1c102a2f356c03fc9d6c3a87f90602001610374565b6107426107b3565b6001600160a01b0381166107a75760405162461bcd60e51b815260206004820152602660248201527f4f776e61626c653a206e6577206f776e657220697320746865207a65726f206160448201526564647265737360d01b60648201526084016103e9565b6107b081610e30565b50565b6000546001600160a01b0316331461068c5760405162461bcd60e51b815260206004820181905260248201527f4f776e61626c653a2063616c6c6572206973206e6f7420746865206f776e657260448201526064016103e9565b600061081d602c600c848661134e565b61082691611378565b9050600061083860766056858761134e565b61084191611378565b9050600061085360c060a0868861134e565b61085c91611378565b90508160405160200161087191815260200190565b60408051601f198184030181528282528051602091820120908301869052910160405160208183030381529060405280519060200120146109055760405162461bcd60e51b815260206004820152602860248201527f74784861736865735b302c315d20666f722064617461517565727920646f206e6044820152670dee840dac2e8c6d60c31b60648201526084016103e9565b60408051602081018390520160408051601f198184030181528282528051602091820120908301859052910160405160208183030381529060405280519060200120146109a55760405162461bcd60e51b815260206004820152602860248201527f74784861736865735b312c325d20666f722064617461517565727920646f206e6044820152670dee840dac2e8c6d60c31b60648201526084016103e9565b5050505050565b60005467ffffffffffffffff848116600160a01b9092041614610a205760405162461bcd60e51b815260206004820152602660248201527f4178696f6d56323a2063616c6c657220736f75726365436861696e4964206d696044820152650e6dac2e8c6d60d31b60648201526084016103e9565b6001546001600160a01b03838116911614610a7d5760405162461bcd60e51b815260206004820181905260248201527f4178696f6d56323a2063616c6c65722061646472657373206d69736d6174636860448201526064016103e9565b60025481146105725760405162461bcd60e51b815260206004820152601e60248201527f4178696f6d56323a20717565727920736368656d61206d69736d61746368000060448201526064016103e9565b6000610adc8284018461102d565b9050600085856000818110610af357610af3611397565b905060200201359050600086866001818110610b1157610b11611397565b9050602002013560001c9050600087876002818110610b3257610b32611397565b60200291909101359150507fc42079f94a6350d7e6235f29174924f928cc2ac818eb64fed8004e115fbcca678314610bec576001600160a01b03841660008181526003602052604090819020805460ff19169055517f8031153b90b84d8fb7737520cd5205a4168384868eee482f856fc78e8973a8f790610bdb90602080825260149082015273496e76616c6964206576656e7420736368656d6160601b604082015260600190565b60405180910390a250505050610670565b836001600160a01b0316826001600160a01b031614610c85576001600160a01b03841660008181526003602052604090819020805460ff19169055517f8031153b90b84d8fb7737520cd5205a4168384868eee482f856fc78e8973a8f790610bdb906020808252601e908201527f496e76616c69642075736572206164647265737320666f72206576656e740000604082015260600190565b628954408163ffffffff161015610d3c576001600160a01b03841660008181526003602052604090819020805460ff19169055517f8031153b90b84d8fb7737520cd5205a4168384868eee482f856fc78e8973a8f790610bdb906020808252603f908201527f426c6f636b206e756d62657220666f72207472616e73616374696f6e2072656360408201527f65697074206d7573742062652039303030303030206f72206772656174657200606082015260800190565b6001600160a01b03848116600081815260046020819052604091829020805460ff19166001179055600554915163a9059cbb60e01b81529081019290925268056bc75e2d631000006024830181905292169063a9059cbb906044016020604051808303816000875af1158015610db6573d6000803e3d6000fd5b505050506040513d601f19601f82011682018060405250810190610dda91906113ad565b5089856001600160a01b03167fb6cdd515ae6bc7c835f5b9b67a78fe370d2fa71ebb6c7a49595cb3f84988d35e838c8c604051610e19939291906113cf565b60405180910390a350505050505050505050505050565b600080546001600160a01b038381166001600160a01b0319831681178455604051919092169283917f8be0079c531659141344cd1fd0a4f28419497f9722a3daafe3b4186f6b6457e09190a35050565b600060208284031215610e9257600080fd5b5035919050565b600060208284031215610eab57600080fd5b813567ffffffffffffffff811115610ec257600080fd5b820160e08185031215610ed457600080fd5b9392505050565b803567ffffffffffffffff81168114610ef357600080fd5b919050565b6001600160a01b03811681146107b057600080fd5b60008083601f840112610f1f57600080fd5b50813567ffffffffffffffff811115610f3757600080fd5b602083019150836020828501011115610f4f57600080fd5b9250929050565b60008060008060008060008060c0898b031215610f7257600080fd5b610f7b89610edb565b97506020890135610f8b81610ef8565b96506040890135955060608901359450608089013567ffffffffffffffff80821115610fb657600080fd5b818b0191508b601f830112610fca57600080fd5b813581811115610fd957600080fd5b8c60208260051b8501011115610fee57600080fd5b6020830196508095505060a08b013591508082111561100c57600080fd5b506110198b828c01610f0d565b999c989b5096995094979396929594505050565b60006020828403121561103f57600080fd5b8135610ed481610ef8565b6000808335601e1984360301811261106157600080fd5b83018035915067ffffffffffffffff82111561107c57600080fd5b602001915036819003821315610f4f57600080fd5b6000602082840312156110a357600080fd5b610ed482610edb565b60008235605e198336030181126110c257600080fd5b9190910192915050565b60008235607e198336030181126110c257600080fd5b6000602082840312156110f457600080fd5b813563ffffffff81168114610ed457600080fd5b803560ff81168114610ef357600080fd5b81835260006001600160fb1b0383111561113257600080fd5b8260051b80836020870137939093016020019392505050565b6000808335601e1984360301811261116257600080fd5b830160208101925035905067ffffffffffffffff81111561118257600080fd5b803603821315610f4f57600080fd5b81835281816020850137506000828201602090810191909152601f909101601f19169091010190565b600081356111c781610ef8565b6001600160a01b0316835260208201356001600160e01b031981168082146111ee57600080fd5b60208501525060ff61120260408401611108565b166040840152611215606083018361114b565b6080606086015261122a608086018284611191565b95945050505050565b600067ffffffffffffffff808b16835289602084015260e0604084015260ff61125b8a611108565b1660e08401526020890135601e198a360301811261127857600080fd5b89016020810190358281111561128d57600080fd5b8060051b360382131561129f57600080fd5b60606101008601526112b661014086018284611119565b925050506112c760408a018a61114b565b84830360df19016101208601526112df838284611191565b9250505082810360608401526112f581896111ba565b67ffffffffffffffff88166080850152905063ffffffff861660a084015282810360c0840152611326818587611191565b9b9a5050505050505050505050565b60006020828403121561134757600080fd5b5051919050565b6000808585111561135e57600080fd5b8386111561136b57600080fd5b5050820193919092039150565b8035602083101561139157600019602084900360031b1b165b92915050565b634e487b7160e01b600052603260045260246000fd5b6000602082840312156113bf57600080fd5b81518015158114610ed457600080fd5b83815260406020820152600061122a60408301848661111956fea2646970667358221220bf2235f2f74bbf7aa5e65edc5d77be6826372ac0cabfef3c9ef263431d7c5aac64736f6c63430008130033",
    "linkReferences": {}
  },
  "methodIdentifiers": {
    "axiomCallbackCallerAddr()": "45e1ef8d",
    "axiomCallbackQuerySchema()": "cd1cd725",
    "axiomV2Callback(uint64,address,bytes32,bytes32,bytes32[],bytes)": "51b17b29",
    "axiomV2QueryAddress()": "2a75d3be",
    "callbackSourceChainId()": "0a50ec5c",
    "claimAirdrop((uint64,bytes32,(uint8,bytes32[],bytes),(address,bytes4,uint8,bytes),uint64,uint32,bytes))": "1b50f734",
    "hasClaimed(address)": "73b2e80e",
    "owner()": "8da5cb5b",
    "querySubmitted(address)": "ab72fc09",
    "renounceOwnership()": "715018a6",
    "token()": "fc0c546a",
    "transferOwnership(address)": "f2fde38b",
    "updateAirdropToken(address)": "a34c1eb4",
    "updateCallbackCallerAddr(address)": "da8c7e7a",
    "updateCallbackQuerySchema(bytes32)": "034606e0"
  },
  "id": 25
}