{
  "abi": [
    {
      "inputs": [
        {
          "internalType": "address",
          "name": "_axiomV2QueryAddress",
          "type": "address"
        },
        {
          "internalType": "uint64",
          "name": "_callbackSourceChainId",
          "type": "uint64"
        },
        {
          "internalType": "bytes32",
          "name": "_axiomCallbackQuerySchema",
          "type": "bytes32"
        }
      ],
      "stateMutability": "nonpayable",
      "type": "constructor"
    },
    {
      "anonymous": false,
      "inputs": [
        {
          "indexed": false,
          "internalType": "address",
          "name": "token",
          "type": "address"
        }
      ],
      "name": "AirdropTokenAddressUpdated",
      "type": "event"
    },
    {
      "anonymous": false,
      "inputs": [
        {
          "indexed": false,
          "internalType": "address",
          "name": "axiomCallbackCallerAddr",
          "type": "address"
        }
      ],
      "name": "AxiomCallbackCallerAddrUpdated",
      "type": "event"
    },
    {
      "anonymous": false,
      "inputs": [
        {
          "indexed": false,
          "internalType": "bytes32",
          "name": "axiomCallbackQuerySchema",
          "type": "bytes32"
        }
      ],
      "name": "AxiomCallbackQuerySchemaUpdated",
      "type": "event"
    },
    {
      "anonymous": false,
      "inputs": [
        {
          "indexed": true,
          "internalType": "uint64",
          "name": "sourceChainId",
          "type": "uint64"
        },
        {
          "indexed": false,
          "internalType": "address",
          "name": "callerAddr",
          "type": "address"
        },
        {
          "indexed": true,
          "internalType": "bytes32",
          "name": "querySchema",
          "type": "bytes32"
        },
        {
          "indexed": true,
          "internalType": "bytes32",
          "name": "queryHash",
          "type": "bytes32"
        }
      ],
      "name": "AxiomV2Call",
      "type": "event"
    },
    {
      "anonymous": false,
      "inputs": [
        {
          "indexed": true,
          "internalType": "address",
          "name": "user",
          "type": "address"
        },
        {
          "indexed": true,
          "internalType": "bytes32",
          "name": "queryHash",
          "type": "bytes32"
        },
        {
          "indexed": false,
          "internalType": "uint256",
          "name": "numTokens",
          "type": "uint256"
        },
        {
          "indexed": false,
          "internalType": "bytes32[]",
          "name": "axiomResults",
          "type": "bytes32[]"
        }
      ],
      "name": "ClaimAirdrop",
      "type": "event"
    },
    {
      "anonymous": false,
      "inputs": [
        {
          "indexed": true,
          "internalType": "address",
          "name": "user",
          "type": "address"
        },
        {
          "indexed": false,
          "internalType": "string",
          "name": "error",
          "type": "string"
        }
      ],
      "name": "ClaimAirdropError",
      "type": "event"
    },
    {
      "anonymous": false,
      "inputs": [
        {
          "indexed": true,
          "internalType": "address",
          "name": "previousOwner",
          "type": "address"
        },
        {
          "indexed": true,
          "internalType": "address",
          "name": "newOwner",
          "type": "address"
        }
      ],
      "name": "OwnershipTransferred",
      "type": "event"
    },
    {
      "inputs": [],
      "name": "SWAP_EVENT_SCHEMA",
      "outputs": [
        {
          "internalType": "bytes32",
          "name": "",
          "type": "bytes32"
        }
      ],
      "stateMutability": "view",
      "type": "function"
    },
    {
      "inputs": [],
      "name": "axiomCallbackCallerAddr",
      "outputs": [
        {
          "internalType": "address",
          "name": "",
          "type": "address"
        }
      ],
      "stateMutability": "view",
      "type": "function"
    },
    {
      "inputs": [],
      "name": "axiomCallbackQuerySchema",
      "outputs": [
        {
          "internalType": "bytes32",
          "name": "",
          "type": "bytes32"
        }
      ],
      "stateMutability": "view",
      "type": "function"
    },
    {
      "inputs": [
        {
          "internalType": "uint64",
          "name": "sourceChainId",
          "type": "uint64"
        },
        {
          "internalType": "address",
          "name": "callerAddr",
          "type": "address"
        },
        {
          "internalType": "bytes32",
          "name": "querySchema",
          "type": "bytes32"
        },
        {
          "internalType": "bytes32",
          "name": "queryHash",
          "type": "bytes32"
        },
        {
          "internalType": "bytes32[]",
          "name": "axiomResults",
          "type": "bytes32[]"
        },
        {
          "internalType": "bytes",
          "name": "callbackExtraData",
          "type": "bytes"
        }
      ],
      "name": "axiomV2Callback",
      "outputs": [],
      "stateMutability": "nonpayable",
      "type": "function"
    },
    {
      "inputs": [],
      "name": "axiomV2QueryAddress",
      "outputs": [
        {
          "internalType": "address",
          "name": "",
          "type": "address"
        }
      ],
      "stateMutability": "view",
      "type": "function"
    },
    {
      "inputs": [],
      "name": "callbackSourceChainId",
      "outputs": [
        {
          "internalType": "uint64",
          "name": "",
          "type": "uint64"
        }
      ],
      "stateMutability": "view",
      "type": "function"
    },
    {
      "inputs": [
        {
          "components": [
            {
              "internalType": "uint64",
              "name": "sourceChainId",
              "type": "uint64"
            },
            {
              "internalType": "bytes32",
              "name": "dataQueryHash",
              "type": "bytes32"
            },
            {
              "components": [
                {
                  "internalType": "uint8",
                  "name": "k",
                  "type": "uint8"
                },
                {
                  "internalType": "bytes32[]",
                  "name": "vkey",
                  "type": "bytes32[]"
                },
                {
                  "internalType": "bytes",
                  "name": "computeProof",
                  "type": "bytes"
                }
              ],
              "internalType": "struct IAxiomV2Query.AxiomV2ComputeQuery",
              "name": "computeQuery",
              "type": "tuple"
            },
            {
              "components": [
                {
                  "internalType": "address",
                  "name": "callbackAddr",
                  "type": "address"
                },
                {
                  "internalType": "bytes4",
                  "name": "callbackFunctionSelector",
                  "type": "bytes4"
                },
                {
                  "internalType": "uint8",
                  "name": "resultLen",
                  "type": "uint8"
                },
                {
                  "internalType": "bytes",
                  "name": "callbackExtraData",
                  "type": "bytes"
                }
              ],
              "internalType": "struct IAxiomV2Query.AxiomV2Callback",
              "name": "callback",
              "type": "tuple"
            },
            {
              "internalType": "uint64",
              "name": "maxFeePerGas",
              "type": "uint64"
            },
            {
              "internalType": "uint32",
              "name": "callbackGasLimit",
              "type": "uint32"
            },
            {
              "internalType": "bytes",
              "name": "dataQuery",
              "type": "bytes"
            }
          ],
          "internalType": "struct AutonomousAirdrop.AxiomV2QueryData",
          "name": "axiomData",
          "type": "tuple"
        }
      ],
      "name": "claimAirdrop",
      "outputs": [],
      "stateMutability": "payable",
      "type": "function"
    },
    {
      "inputs": [
        {
          "internalType": "address",
          "name": "",
          "type": "address"
        }
      ],
      "name": "hasClaimed",
      "outputs": [
        {
          "internalType": "bool",
          "name": "",
          "type": "bool"
        }
      ],
      "stateMutability": "view",
      "type": "function"
    },
    {
      "inputs": [],
      "name": "owner",
      "outputs": [
        {
          "internalType": "address",
          "name": "",
          "type": "address"
        }
      ],
      "stateMutability": "view",
      "type": "function"
    },
    {
      "inputs": [
        {
          "internalType": "address",
          "name": "",
          "type": "address"
        }
      ],
      "name": "querySubmitted",
      "outputs": [
        {
          "internalType": "bool",
          "name": "",
          "type": "bool"
        }
      ],
      "stateMutability": "view",
      "type": "function"
    },
    {
      "inputs": [],
      "name": "renounceOwnership",
      "outputs": [],
      "stateMutability": "nonpayable",
      "type": "function"
    },
    {
      "inputs": [],
      "name": "token",
      "outputs": [
        {
          "internalType": "contract IERC20",
          "name": "",
          "type": "address"
        }
      ],
      "stateMutability": "view",
      "type": "function"
    },
    {
      "inputs": [
        {
          "internalType": "address",
          "name": "newOwner",
          "type": "address"
        }
      ],
      "name": "transferOwnership",
      "outputs": [],
      "stateMutability": "nonpayable",
      "type": "function"
    },
    {
      "inputs": [
        {
          "internalType": "address",
          "name": "_token",
          "type": "address"
        }
      ],
      "name": "updateAirdropToken",
      "outputs": [],
      "stateMutability": "nonpayable",
      "type": "function"
    },
    {
      "inputs": [
        {
          "internalType": "address",
          "name": "_axiomCallbackCallerAddr",
          "type": "address"
        }
      ],
      "name": "updateCallbackCallerAddr",
      "outputs": [],
      "stateMutability": "nonpayable",
      "type": "function"
    },
    {
      "inputs": [
        {
          "internalType": "bytes32",
          "name": "_axiomCallbackQuerySchema",
          "type": "bytes32"
        }
      ],
      "name": "updateCallbackQuerySchema",
      "outputs": [],
      "stateMutability": "nonpayable",
      "type": "function"
    }
  ],
  "bytecode": {
    "object": "0x60a060405234801561001057600080fd5b5060405161167138038061167183398101604081905261002f916100db565b6001600160a01b0383166080526100453361008b565b600080546001600160401b03909316600160a01b02600160a01b600160e01b031990931692909217909155600180546001600160a01b0319163017905560025550610136565b600080546001600160a01b038381166001600160a01b0319831681178455604051919092169283917f8be0079c531659141344cd1fd0a4f28419497f9722a3daafe3b4186f6b6457e09190a35050565b6000806000606084860312156100f057600080fd5b83516001600160a01b038116811461010757600080fd5b60208501519093506001600160401b038116811461012457600080fd5b80925050604084015190509250925092565b60805161151261015f6000396000818161018501528181610570015261067001526115126000f3fe6080604052600436106100f35760003560e01c80638da5cb5b1161008a578063da8c7e7a11610059578063da8c7e7a146102e6578063f2fde38b14610306578063f790c7eb14610326578063fc0c546a1461035a57600080fd5b80638da5cb5b14610254578063a34c1eb414610272578063ab72fc0914610292578063cd1cd725146102c257600080fd5b806345e1ef8d116100c657806345e1ef8d146101bf57806351b17b29146101df578063715018a6146101ff57806373b2e80e1461021457600080fd5b8063034606e0146100f85780630a50ec5c1461011a5780631b50f734146101605780632a75d3be14610173575b600080fd5b34801561010457600080fd5b50610118610113366004610f73565b61037a565b005b34801561012657600080fd5b5060005461014290600160a01b900467ffffffffffffffff1681565b60405167ffffffffffffffff90911681526020015b60405180910390f35b61011861016e366004610f8c565b6103be565b34801561017f57600080fd5b506101a77f000000000000000000000000000000000000000000000000000000000000000081565b6040516001600160a01b039091168152602001610157565b3480156101cb57600080fd5b506001546101a7906001600160a01b031681565b3480156101eb57600080fd5b506101186101fa366004611049565b610665565b34801561020b57600080fd5b50610118610768565b34801561022057600080fd5b5061024461022f366004611120565b60046020526000908152604090205460ff1681565b6040519015158152602001610157565b34801561026057600080fd5b506000546001600160a01b03166101a7565b34801561027e57600080fd5b5061011861028d366004611120565b61077c565b34801561029e57600080fd5b506102446102ad366004611120565b60036020526000908152604090205460ff1681565b3480156102ce57600080fd5b506102d860025481565b604051908152602001610157565b3480156102f257600080fd5b50610118610301366004611120565b6107d2565b34801561031257600080fd5b50610118610321366004611120565b610828565b34801561033257600080fd5b506102d87fc42079f94a6350d7e6235f29174924f928cc2ac818eb64fed8004e115fbcca6781565b34801561036657600080fd5b506005546101a7906001600160a01b031681565b6103826108a1565b60028190556040518181527f215a17e0015e11cebc3087027513f0b70572c3b3341a76ef38fbcbbb8193c6ae906020015b60405180910390a150565b3360009081526004602052604090205460ff16156104315760405162461bcd60e51b815260206004820152602560248201527f557365722068617320616c726561647920636c61696d6564207468697320616960448201526407264726f760dc1b60648201526084015b60405180910390fd5b3360009081526003602052604090205460ff16156104915760405162461bcd60e51b815260206004820181905260248201527f51756572792068617320616c7265616479206265656e207375626d69747465646044820152606401610428565b60006104a0606083018361113d565b6104ae90606081019061115d565b8101906104bb9190611120565b90506001600160a01b038116331461053d576040805162461bcd60e51b81526020600482015260248101919091527f416464726573732073656e7420696e2063616c6c6261636b457874726144617460448201527f61206d757374206265207468652073616d65206173207468652063616c6c65726064820152608401610428565b61055261054d60c084018461115d565b6108fb565b3360009081526003602090815260408220805460ff191660011790557f00000000000000000000000000000000000000000000000000000000000000006001600160a01b03169063ea53dce49034906105ad908701876111a4565b60208701356105bf60408901896111bf565b6105cc60608a018a61113d565b6105dc60a08b0160808c016111a4565b6105ec60c08c0160a08d016111d5565b6105f960c08d018d61115d565b6040518a63ffffffff1660e01b815260040161061c989796959493929190611326565b60206040518083038185885af115801561063a573d6000803e3d6000fd5b50505050506040513d601f19601f8201168201806040525081019061065f9190611428565b50505050565b336001600160a01b037f000000000000000000000000000000000000000000000000000000000000000016146106f75760405162461bcd60e51b815260206004820152603160248201527f4178696f6d5632436c69656e743a2063616c6c6572206d757374206265206178604482015270696f6d563251756572794164647265737360781b6064820152608401610428565b6040516001600160a01b03881681528590879067ffffffffffffffff8b16907f8c4d7c8c39bd8567a2e06cd74f2e95db120e4aeeb5092fca49fb9f3ea13f0fc19060200160405180910390a461074e888888610a9a565b61075e8888888888888888610bc1565b5050505050505050565b6107706108a1565b61077a6000610f23565b565b6107846108a1565b600580546001600160a01b0319166001600160a01b0383169081179091556040519081527f3d74e308a5601bae6228e9545413c210aad9d550ccd35b1f55805a9bd2cc6dfb906020016103b3565b6107da6108a1565b600180546001600160a01b0319166001600160a01b0383169081179091556040519081527f1b1580fc32a58bb9d566344e104e66168ade97b1c102a2f356c03fc9d6c3a87f906020016103b3565b6108306108a1565b6001600160a01b0381166108955760405162461bcd60e51b815260206004820152602660248201527f4f776e61626c653a206e6577206f776e657220697320746865207a65726f206160448201526564647265737360d01b6064820152608401610428565b61089e81610f23565b50565b6000546001600160a01b0316331461077a5760405162461bcd60e51b815260206004820181905260248201527f4f776e61626c653a2063616c6c6572206973206e6f7420746865206f776e65726044820152606401610428565b600061090b602c600c8486611441565b6109149161146b565b90506000610926607660568587611441565b61092f9161146b565b9050600061094160c060a08688611441565b61094a9161146b565b90508160405160200161095f91815260200190565b60408051601f198184030181528282528051602091820120908301869052910160405160208183030381529060405280519060200120146109f35760405162461bcd60e51b815260206004820152602860248201527f74784861736865735b302c315d20666f722064617461517565727920646f206e6044820152670dee840dac2e8c6d60c31b6064820152608401610428565b60408051602081018390520160408051601f19818403018152828252805160209182012090830185905291016040516020818303038152906040528051906020012014610a935760405162461bcd60e51b815260206004820152602860248201527f74784861736865735b312c325d20666f722064617461517565727920646f206e6044820152670dee840dac2e8c6d60c31b6064820152608401610428565b5050505050565b60005467ffffffffffffffff848116600160a01b9092041614610b0e5760405162461bcd60e51b815260206004820152602660248201527f4178696f6d56323a2063616c6c657220736f75726365436861696e4964206d696044820152650e6dac2e8c6d60d31b6064820152608401610428565b6001546001600160a01b03838116911614610b6b5760405162461bcd60e51b815260206004820181905260248201527f4178696f6d56323a2063616c6c65722061646472657373206d69736d617463686044820152606401610428565b6002548114610bbc5760405162461bcd60e51b815260206004820152601e60248201527f4178696f6d56323a20717565727920736368656d61206d69736d6174636800006044820152606401610428565b505050565b6000610bcf82840184611120565b9050600085856000818110610be657610be661148a565b905060200201359050600086866001818110610c0457610c0461148a565b9050602002013560001c9050600087876002818110610c2557610c2561148a565b60200291909101359150507fc42079f94a6350d7e6235f29174924f928cc2ac818eb64fed8004e115fbcca678314610cdf576001600160a01b03841660008181526003602052604090819020805460ff19169055517f8031153b90b84d8fb7737520cd5205a4168384868eee482f856fc78e8973a8f790610cce90602080825260149082015273496e76616c6964206576656e7420736368656d6160601b604082015260600190565b60405180910390a25050505061075e565b836001600160a01b0316826001600160a01b031614610d78576001600160a01b03841660008181526003602052604090819020805460ff19169055517f8031153b90b84d8fb7737520cd5205a4168384868eee482f856fc78e8973a8f790610cce906020808252601e908201527f496e76616c69642075736572206164647265737320666f72206576656e740000604082015260600190565b628954408163ffffffff161015610e2f576001600160a01b03841660008181526003602052604090819020805460ff19169055517f8031153b90b84d8fb7737520cd5205a4168384868eee482f856fc78e8973a8f790610cce906020808252603f908201527f426c6f636b206e756d62657220666f72207472616e73616374696f6e2072656360408201527f65697074206d7573742062652039303030303030206f72206772656174657200606082015260800190565b6001600160a01b03848116600081815260046020819052604091829020805460ff19166001179055600554915163a9059cbb60e01b81529081019290925268056bc75e2d631000006024830181905292169063a9059cbb906044016020604051808303816000875af1158015610ea9573d6000803e3d6000fd5b505050506040513d601f19601f82011682018060405250810190610ecd91906114a0565b5089856001600160a01b03167fb6cdd515ae6bc7c835f5b9b67a78fe370d2fa71ebb6c7a49595cb3f84988d35e838c8c604051610f0c939291906114c2565b60405180910390a350505050505050505050505050565b600080546001600160a01b038381166001600160a01b0319831681178455604051919092169283917f8be0079c531659141344cd1fd0a4f28419497f9722a3daafe3b4186f6b6457e09190a35050565b600060208284031215610f8557600080fd5b5035919050565b600060208284031215610f9e57600080fd5b813567ffffffffffffffff811115610fb557600080fd5b820160e08185031215610fc757600080fd5b9392505050565b803567ffffffffffffffff81168114610fe657600080fd5b919050565b6001600160a01b038116811461089e57600080fd5b60008083601f84011261101257600080fd5b50813567ffffffffffffffff81111561102a57600080fd5b60208301915083602082850101111561104257600080fd5b9250929050565b60008060008060008060008060c0898b03121561106557600080fd5b61106e89610fce565b9750602089013561107e81610feb565b96506040890135955060608901359450608089013567ffffffffffffffff808211156110a957600080fd5b818b0191508b601f8301126110bd57600080fd5b8135818111156110cc57600080fd5b8c60208260051b85010111156110e157600080fd5b6020830196508095505060a08b01359150808211156110ff57600080fd5b5061110c8b828c01611000565b999c989b5096995094979396929594505050565b60006020828403121561113257600080fd5b8135610fc781610feb565b60008235607e1983360301811261115357600080fd5b9190910192915050565b6000808335601e1984360301811261117457600080fd5b83018035915067ffffffffffffffff82111561118f57600080fd5b60200191503681900382131561104257600080fd5b6000602082840312156111b657600080fd5b610fc782610fce565b60008235605e1983360301811261115357600080fd5b6000602082840312156111e757600080fd5b813563ffffffff81168114610fc757600080fd5b803560ff81168114610fe657600080fd5b81835260006001600160fb1b0383111561122557600080fd5b8260051b80836020870137939093016020019392505050565b6000808335601e1984360301811261125557600080fd5b830160208101925035905067ffffffffffffffff81111561127557600080fd5b80360382131561104257600080fd5b81835281816020850137506000828201602090810191909152601f909101601f19169091010190565b600081356112ba81610feb565b6001600160a01b0316835260208201356001600160e01b031981168082146112e157600080fd5b60208501525060ff6112f5604084016111fb565b166040840152611308606083018361123e565b6080606086015261131d608086018284611284565b95945050505050565b600067ffffffffffffffff808b16835289602084015260e0604084015260ff61134e8a6111fb565b1660e08401526020890135601e198a360301811261136b57600080fd5b89016020810190358281111561138057600080fd5b8060051b360382131561139257600080fd5b60606101008601526113a96101408601828461120c565b925050506113ba60408a018a61123e565b84830360df19016101208601526113d2838284611284565b9250505082810360608401526113e881896112ad565b67ffffffffffffffff88166080850152905063ffffffff861660a084015282810360c0840152611419818587611284565b9b9a5050505050505050505050565b60006020828403121561143a57600080fd5b5051919050565b6000808585111561145157600080fd5b8386111561145e57600080fd5b5050820193919092039150565b8035602083101561148457600019602084900360031b1b165b92915050565b634e487b7160e01b600052603260045260246000fd5b6000602082840312156114b257600080fd5b81518015158114610fc757600080fd5b83815260406020820152600061131d60408301848661120c56fea26469706673582212201f0a5be12b86ee9ac14501732d35afd1b5d9394d6feceb368a14b4b44cab3d8a64736f6c63430008130033",
    "linkReferences": {}
  },
  "methodIdentifiers": {
    "SWAP_EVENT_SCHEMA()": "f790c7eb",
    "axiomCallbackCallerAddr()": "45e1ef8d",
    "axiomCallbackQuerySchema()": "cd1cd725",
    "axiomV2Callback(uint64,address,bytes32,bytes32,bytes32[],bytes)": "51b17b29",
    "axiomV2QueryAddress()": "2a75d3be",
    "callbackSourceChainId()": "0a50ec5c",
    "claimAirdrop((uint64,bytes32,(uint8,bytes32[],bytes),(address,bytes4,uint8,bytes),uint64,uint32,bytes))": "1b50f734",
    "hasClaimed(address)": "73b2e80e",
    "owner()": "8da5cb5b",
    "querySubmitted(address)": "ab72fc09",
    "renounceOwnership()": "715018a6",
    "token()": "fc0c546a",
    "transferOwnership(address)": "f2fde38b",
    "updateAirdropToken(address)": "a34c1eb4",
    "updateCallbackCallerAddr(address)": "da8c7e7a",
    "updateCallbackQuerySchema(bytes32)": "034606e0"
  },
  "id": 25
}