{
  "abi": [
    {
      "inputs": [],
      "stateMutability": "nonpayable",
      "type": "constructor"
    },
    {
      "anonymous": false,
      "inputs": [
        {
          "indexed": true,
          "internalType": "address",
          "name": "_addr",
          "type": "address"
        }
      ],
      "name": "AddressMatch",
      "type": "event"
    },
    {
      "anonymous": false,
      "inputs": [
        {
          "indexed": true,
          "internalType": "address",
          "name": "previousOwner",
          "type": "address"
        },
        {
          "indexed": true,
          "internalType": "address",
          "name": "newOwner",
          "type": "address"
        }
      ],
      "name": "OwnershipTransferred",
      "type": "event"
    },
    {
      "inputs": [],
      "name": "AXIOM_V2_QUERY_GOERLI_ADDR",
      "outputs": [
        {
          "internalType": "address",
          "name": "",
          "type": "address"
        }
      ],
      "stateMutability": "view",
      "type": "function"
    },
    {
      "inputs": [],
      "name": "owner",
      "outputs": [
        {
          "internalType": "address",
          "name": "",
          "type": "address"
        }
      ],
      "stateMutability": "view",
      "type": "function"
    },
    {
      "inputs": [],
      "name": "renounceOwnership",
      "outputs": [],
      "stateMutability": "nonpayable",
      "type": "function"
    },
    {
      "inputs": [
        {
          "internalType": "address",
          "name": "newOwner",
          "type": "address"
        }
      ],
      "name": "transferOwnership",
      "outputs": [],
      "stateMutability": "nonpayable",
      "type": "function"
    },
    {
      "inputs": [
        {
          "internalType": "address",
          "name": "_addr",
          "type": "address"
        }
      ],
      "name": "validate",
      "outputs": [],
      "stateMutability": "nonpayable",
      "type": "function"
    }
  ],
  "bytecode": {
    "object": "0x608060405234801561001057600080fd5b5061001a3361001f565b61006f565b600080546001600160a01b038381166001600160a01b0319831681178455604051919092169283917f8be0079c531659141344cd1fd0a4f28419497f9722a3daafe3b4186f6b6457e09190a35050565b61038b8061007e6000396000f3fe608060405234801561001057600080fd5b50600436106100575760003560e01c8063207c64fb1461005c578063715018a6146100715780638da5cb5b14610079578063f2fde38b146100a2578063fab82535146100b5575b600080fd5b61006f61006a366004610325565b6100d0565b005b61006f6101ee565b6000546001600160a01b03165b6040516001600160a01b03909116815260200160405180910390f35b61006f6100b0366004610325565b610202565b6100867318d8a359c23bebc4b5a0d116f792172a114a1fb781565b337318d8a359c23bebc4b5a0d116f792172a114a1fb71461014b5760405162461bcd60e51b815260206004820152602a60248201527f41646472657373436865636b65723a2073656e646572206973206e6f74204178604482015269696f6d5632517565727960b01b60648201526084015b60405180910390fd5b6000546001600160a01b038281169116146101b75760405162461bcd60e51b815260206004820152602660248201527f41646472657373436865636b65723a206164647265737320646f6573206e6f74604482015265040dac2e8c6d60d31b6064820152608401610142565b6040516001600160a01b038216907f8b3bd8657eca51fe1c2e024349c2569ee0faad17cb7b0978665469116a18446d90600090a250565b6101f661027b565b61020060006102d5565b565b61020a61027b565b6001600160a01b03811661026f5760405162461bcd60e51b815260206004820152602660248201527f4f776e61626c653a206e6577206f776e657220697320746865207a65726f206160448201526564647265737360d01b6064820152608401610142565b610278816102d5565b50565b6000546001600160a01b031633146102005760405162461bcd60e51b815260206004820181905260248201527f4f776e61626c653a2063616c6c6572206973206e6f7420746865206f776e65726044820152606401610142565b600080546001600160a01b038381166001600160a01b0319831681178455604051919092169283917f8be0079c531659141344cd1fd0a4f28419497f9722a3daafe3b4186f6b6457e09190a35050565b60006020828403121561033757600080fd5b81356001600160a01b038116811461034e57600080fd5b939250505056fea264697066735822122018b89014d77e02e044e3a61434e67298e6f1cb69439759661deb0d9e278359fe64736f6c63430008150033",
    "linkReferences": {}
  },
  "methodIdentifiers": {
    "AXIOM_V2_QUERY_GOERLI_ADDR()": "fab82535",
    "owner()": "8da5cb5b",
    "renounceOwnership()": "715018a6",
    "transferOwnership(address)": "f2fde38b",
    "validate(address)": "207c64fb"
  },
  "id": 22
}