{
  "abi": [
    {
      "inputs": [],
      "stateMutability": "nonpayable",
      "type": "constructor"
    },
    {
      "anonymous": false,
      "inputs": [
        {
          "indexed": true,
          "internalType": "bytes32",
          "name": "_addr",
          "type": "bytes32"
        }
      ],
      "name": "AddressMatch",
      "type": "event"
    },
    {
      "inputs": [],
      "name": "AXIOM_V2_QUERY_GOERLI_ADDR",
      "outputs": [
        {
          "internalType": "address",
          "name": "",
          "type": "address"
        }
      ],
      "stateMutability": "view",
      "type": "function"
    },
    {
      "inputs": [
        {
          "internalType": "bytes32",
          "name": "querySchema",
          "type": "bytes32"
        },
        {
          "internalType": "address[]",
          "name": "_addr",
          "type": "address[]"
        }
      ],
      "name": "validate",
      "outputs": [],
      "stateMutability": "nonpayable",
      "type": "function"
    }
  ],
  "bytecode": {
    "object": "0x608060405234801561001057600080fd5b5061025e806100206000396000f3fe608060405234801561001057600080fd5b50600436106100365760003560e01c80638e3e90f11461003b578063fab8253514610050575b600080fd5b61004e610049366004610163565b610087565b005b61006b7318d8a359c23bebc4b5a0d116f792172a114a1fb781565b6040516001600160a01b03909116815260200160405180910390f35b337318d8a359c23bebc4b5a0d116f792172a114a1fb7146101015760405162461bcd60e51b815260206004820152602a60248201527f41646472657373436865636b65723a2073656e646572206973206e6f74204178604482015269696f6d5632517565727960b01b606482015260840160405180910390fd5b81816000818110610114576101146101e2565b905060200201602081019061012991906101f8565b6001600160a01b03167f8b3bd8657eca51fe1c2e024349c2569ee0faad17cb7b0978665469116a18446d60405160405180910390a2505050565b60008060006040848603121561017857600080fd5b83359250602084013567ffffffffffffffff8082111561019757600080fd5b818601915086601f8301126101ab57600080fd5b8135818111156101ba57600080fd5b8760208260051b85010111156101cf57600080fd5b6020830194508093505050509250925092565b634e487b7160e01b600052603260045260246000fd5b60006020828403121561020a57600080fd5b81356001600160a01b038116811461022157600080fd5b939250505056fea264697066735822122030e880cb6ccb4b1294a8790c5fa966c857844dc6ce230f1962a509ffc7ad42e464736f6c63430008140033",
    "linkReferences": {}
  },
  "methodIdentifiers": {
    "AXIOM_V2_QUERY_GOERLI_ADDR()": "fab82535",
    "validate(bytes32,address[])": "8e3e90f1"
  },
  "id": 20
}