{
  "abi": [
    {
      "inputs": [],
      "stateMutability": "nonpayable",
      "type": "constructor"
    },
    {
      "anonymous": false,
      "inputs": [
        {
          "indexed": true,
          "internalType": "bytes32",
          "name": "_addr",
          "type": "bytes32"
        }
      ],
      "name": "AddressMatch",
      "type": "event"
    },
    {
      "anonymous": false,
      "inputs": [
        {
          "indexed": false,
          "internalType": "bytes32[]",
          "name": "_addr",
          "type": "bytes32[]"
        }
      ],
      "name": "MultipleAddresses",
      "type": "event"
    },
    {
      "inputs": [],
      "name": "AXIOM_V2_QUERY_GOERLI_ADDR",
      "outputs": [
        {
          "internalType": "address",
          "name": "",
          "type": "address"
        }
      ],
      "stateMutability": "view",
      "type": "function"
    },
    {
      "inputs": [],
      "name": "count",
      "outputs": [
        {
          "internalType": "uint256",
          "name": "",
          "type": "uint256"
        }
      ],
      "stateMutability": "view",
      "type": "function"
    },
    {
      "inputs": [
        {
          "internalType": "bytes32",
          "name": "querySchema",
          "type": "bytes32"
        },
        {
          "internalType": "bytes32[]",
          "name": "_addr",
          "type": "bytes32[]"
        },
        {
          "internalType": "bytes",
          "name": "extraData",
          "type": "bytes"
        }
      ],
      "name": "validate",
      "outputs": [],
      "stateMutability": "nonpayable",
      "type": "function"
    }
  ],
  "bytecode": {
    "object": "0x60806040526000805534801561001457600080fd5b50610288806100246000396000f3fe608060405234801561001057600080fd5b50600436106100415760003560e01c806306661abd146100465780637b8bb99114610062578063fab8253514610077575b600080fd5b61004f60005481565b6040519081526020015b60405180910390f35b610075610070366004610147565b6100aa565b005b6100927318d8a359c23bebc4b5a0d116f792172a114a1fb781565b6040516001600160a01b039091168152602001610059565b7fd26d3bb00f5c3d6cd096d7e5b7c449a40a2e6e5970f59194ffe089d0ea9eecac84846040516100db9291906101f2565b60405180910390a16000805490806100f28361022b565b91905055505050505050565b60008083601f84011261011057600080fd5b50813567ffffffffffffffff81111561012857600080fd5b60208301915083602082850101111561014057600080fd5b9250929050565b60008060008060006060868803121561015f57600080fd5b85359450602086013567ffffffffffffffff8082111561017e57600080fd5b818801915088601f83011261019257600080fd5b8135818111156101a157600080fd5b8960208260051b85010111156101b657600080fd5b6020830196508095505060408801359150808211156101d457600080fd5b506101e1888289016100fe565b969995985093965092949392505050565b6020808252810182905260006001600160fb1b0383111561021257600080fd5b8260051b80856040850137919091016040019392505050565b60006001820161024b57634e487b7160e01b600052601160045260246000fd5b506001019056fea2646970667358221220eae10f74cf97c3156bf7cb930f849ad1d1a696525569603e032a6a5ef4c87bb764736f6c63430008150033",
    "linkReferences": {}
  },
  "methodIdentifiers": {
    "AXIOM_V2_QUERY_GOERLI_ADDR()": "fab82535",
    "count()": "06661abd",
    "validate(bytes32,bytes32[],bytes)": "7b8bb991"
  },
  "id": 20
}