{
  "abi": [
    {
      "inputs": [
        {
          "internalType": "address",
          "name": "_axiomV2QueryAddress",
          "type": "address"
        },
        {
          "internalType": "uint64",
          "name": "_callbackSourceChainId",
          "type": "uint64"
        },
        {
          "internalType": "bytes32",
          "name": "_axiomCallbackQuerySchema",
          "type": "bytes32"
        }
      ],
      "stateMutability": "nonpayable",
      "type": "constructor"
    },
    {
      "anonymous": false,
      "inputs": [
        {
          "indexed": false,
          "internalType": "address",
          "name": "axiomCallbackCallerAddr",
          "type": "address"
        }
      ],
      "name": "AxiomCallbackCallerAddrUpdated",
      "type": "event"
    },
    {
      "anonymous": false,
      "inputs": [
        {
          "indexed": false,
          "internalType": "bytes32",
          "name": "axiomCallbackQuerySchema",
          "type": "bytes32"
        }
      ],
      "name": "AxiomCallbackQuerySchemaUpdated",
      "type": "event"
    },
    {
      "anonymous": false,
      "inputs": [
        {
          "indexed": true,
          "internalType": "uint64",
          "name": "sourceChainId",
          "type": "uint64"
        },
        {
          "indexed": false,
          "internalType": "address",
          "name": "callerAddr",
          "type": "address"
        },
        {
          "indexed": true,
          "internalType": "bytes32",
          "name": "querySchema",
          "type": "bytes32"
        },
        {
          "indexed": true,
          "internalType": "bytes32",
          "name": "queryHash",
          "type": "bytes32"
        }
      ],
      "name": "AxiomV2Call",
      "type": "event"
    },
    {
      "anonymous": false,
      "inputs": [
        {
          "indexed": true,
          "internalType": "address",
          "name": "user",
          "type": "address"
        },
        {
          "indexed": true,
          "internalType": "bytes32",
          "name": "queryHash",
          "type": "bytes32"
        },
        {
          "indexed": false,
          "internalType": "bytes32[]",
          "name": "axiomResults",
          "type": "bytes32[]"
        },
        {
          "indexed": false,
          "internalType": "bytes",
          "name": "callbackExtraData",
          "type": "bytes"
        }
      ],
      "name": "ClaimAirdrop",
      "type": "event"
    },
    {
      "inputs": [],
      "name": "axiomCallbackCallerAddr",
      "outputs": [
        {
          "internalType": "address",
          "name": "",
          "type": "address"
        }
      ],
      "stateMutability": "view",
      "type": "function"
    },
    {
      "inputs": [],
      "name": "axiomCallbackQuerySchema",
      "outputs": [
        {
          "internalType": "bytes32",
          "name": "",
          "type": "bytes32"
        }
      ],
      "stateMutability": "view",
      "type": "function"
    },
    {
      "inputs": [
        {
          "internalType": "uint64",
          "name": "sourceChainId",
          "type": "uint64"
        },
        {
          "internalType": "address",
          "name": "callerAddr",
          "type": "address"
        },
        {
          "internalType": "bytes32",
          "name": "querySchema",
          "type": "bytes32"
        },
        {
          "internalType": "bytes32",
          "name": "queryHash",
          "type": "bytes32"
        },
        {
          "internalType": "bytes32[]",
          "name": "axiomResults",
          "type": "bytes32[]"
        },
        {
          "internalType": "bytes",
          "name": "callbackExtraData",
          "type": "bytes"
        }
      ],
      "name": "axiomV2Callback",
      "outputs": [],
      "stateMutability": "nonpayable",
      "type": "function"
    },
    {
      "inputs": [],
      "name": "axiomV2QueryAddress",
      "outputs": [
        {
          "internalType": "address",
          "name": "",
          "type": "address"
        }
      ],
      "stateMutability": "view",
      "type": "function"
    },
    {
      "inputs": [],
      "name": "callbackSourceChainId",
      "outputs": [
        {
          "internalType": "uint64",
          "name": "",
          "type": "uint64"
        }
      ],
      "stateMutability": "view",
      "type": "function"
    },
    {
      "inputs": [
        {
          "components": [
            {
              "internalType": "uint64",
              "name": "sourceChainId",
              "type": "uint64"
            },
            {
              "internalType": "bytes32",
              "name": "dataQueryHash",
              "type": "bytes32"
            },
            {
              "components": [
                {
                  "internalType": "uint8",
                  "name": "k",
                  "type": "uint8"
                },
                {
                  "internalType": "bytes32[]",
                  "name": "vkey",
                  "type": "bytes32[]"
                },
                {
                  "internalType": "bytes",
                  "name": "computeProof",
                  "type": "bytes"
                }
              ],
              "internalType": "struct IAxiomV2Query.AxiomV2ComputeQuery",
              "name": "computeQuery",
              "type": "tuple"
            },
            {
              "components": [
                {
                  "internalType": "address",
                  "name": "callbackAddr",
                  "type": "address"
                },
                {
                  "internalType": "bytes4",
                  "name": "callbackFunctionSelector",
                  "type": "bytes4"
                },
                {
                  "internalType": "uint8",
                  "name": "resultLen",
                  "type": "uint8"
                },
                {
                  "internalType": "bytes",
                  "name": "callbackExtraData",
                  "type": "bytes"
                }
              ],
              "internalType": "struct IAxiomV2Query.AxiomV2Callback",
              "name": "callback",
              "type": "tuple"
            },
            {
              "internalType": "uint64",
              "name": "maxFeePerGas",
              "type": "uint64"
            },
            {
              "internalType": "uint32",
              "name": "callbackGasLimit",
              "type": "uint32"
            },
            {
              "internalType": "bytes",
              "name": "dataQuery",
              "type": "bytes"
            }
          ],
          "internalType": "struct AutoAirdrop.AxiomV2QueryData",
          "name": "axiomData",
          "type": "tuple"
        }
      ],
      "name": "claimAirdrop",
      "outputs": [],
      "stateMutability": "payable",
      "type": "function"
    },
    {
      "inputs": [
        {
          "internalType": "address",
          "name": "",
          "type": "address"
        }
      ],
      "name": "hasClaimed",
      "outputs": [
        {
          "internalType": "bool",
          "name": "",
          "type": "bool"
        }
      ],
      "stateMutability": "view",
      "type": "function"
    },
    {
      "inputs": [
        {
          "internalType": "address",
          "name": "",
          "type": "address"
        }
      ],
      "name": "querySubmitted",
      "outputs": [
        {
          "internalType": "bool",
          "name": "",
          "type": "bool"
        }
      ],
      "stateMutability": "view",
      "type": "function"
    },
    {
      "inputs": [
        {
          "internalType": "address",
          "name": "_axiomCallbackCallerAddr",
          "type": "address"
        }
      ],
      "name": "updateCallbackCallerAddr",
      "outputs": [],
      "stateMutability": "nonpayable",
      "type": "function"
    },
    {
      "inputs": [
        {
          "internalType": "bytes32",
          "name": "_axiomCallbackQuerySchema",
          "type": "bytes32"
        }
      ],
      "name": "updateCallbackQuerySchema",
      "outputs": [],
      "stateMutability": "nonpayable",
      "type": "function"
    }
  ],
  "bytecode": {
    "object": "0x60a060405234801561001057600080fd5b5060405161103938038061103983398101604081905261002f91610075565b6001600160a01b0392909216608052600080546001600160401b03929092166001600160e01b0319909216919091173068010000000000000000021790556001556100d0565b60008060006060848603121561008a57600080fd5b83516001600160a01b03811681146100a157600080fd5b60208501519093506001600160401b03811681146100be57600080fd5b80925050604084015190509250925092565b608051610f406100f96000396000818161011c015281816102ae01526103a30152610f406000f3fe6080604052600436106100915760003560e01c806351b17b291161005957806351b17b291461017d57806373b2e80e1461019d578063ab72fc09146101dd578063cd1cd7251461020d578063da8c7e7a1461023157600080fd5b8063034606e0146100965780630a50ec5c146100b85780631b50f734146100f75780632a75d3be1461010a57806345e1ef8d14610156575b600080fd5b3480156100a257600080fd5b506100b66100b1366004610965565b610251565b005b3480156100c457600080fd5b506000546100d99067ffffffffffffffff1681565b60405167ffffffffffffffff90911681526020015b60405180910390f35b6100b661010536600461097e565b61028d565b34801561011657600080fd5b5061013e7f000000000000000000000000000000000000000000000000000000000000000081565b6040516001600160a01b0390911681526020016100ee565b34801561016257600080fd5b5060005461013e90600160401b90046001600160a01b031681565b34801561018957600080fd5b506100b6610198366004610a3e565b610398565b3480156101a957600080fd5b506101cd6101b8366004610b15565b60036020526000908152604090205460ff1681565b60405190151581526020016100ee565b3480156101e957600080fd5b506101cd6101f8366004610b15565b60026020526000908152604090205460ff1681565b34801561021957600080fd5b5061022360015481565b6040519081526020016100ee565b34801561023d57600080fd5b506100b661024c366004610b15565b6104a0565b60018190556040518181527f215a17e0015e11cebc3087027513f0b70572c3b3341a76ef38fbcbbb8193c6ae906020015b60405180910390a150565b6102a261029d60c0830183610b32565b6104ff565b60006001600160a01b037f00000000000000000000000000000000000000000000000000000000000000001663ea53dce4346102e16020860186610b79565b60208601356102f36040880188610b94565b6103006060890189610bb4565b61031060a08a0160808b01610b79565b61032060c08b0160a08c01610bca565b61032d60c08c018c610b32565b6040518a63ffffffff1660e01b8152600401610350989796959493929190610d1b565b60206040518083038185885af115801561036e573d6000803e3d6000fd5b50505050506040513d601f19601f820116820180604052508101906103939190610e1d565b505050565b336001600160a01b037f0000000000000000000000000000000000000000000000000000000000000000161461042f5760405162461bcd60e51b815260206004820152603160248201527f4178696f6d5632436c69656e743a2063616c6c6572206d757374206265206178604482015270696f6d563251756572794164647265737360781b60648201526084015b60405180910390fd5b6040516001600160a01b03881681528590879067ffffffffffffffff8b16907f8c4d7c8c39bd8567a2e06cd74f2e95db120e4aeeb5092fca49fb9f3ea13f0fc19060200160405180910390a461048688888861061c565b610496888888888888888861073e565b5050505050505050565b6000805468010000000000000000600160e01b031916600160401b6001600160a01b038416908102919091179091556040519081527f1b1580fc32a58bb9d566344e104e66168ade97b1c102a2f356c03fc9d6c3a87f90602001610282565b600061050f602c600c8486610e36565b61051891610e60565b9050600061052a607660568587610e36565b61053391610e60565b9050600061054560d660b68688610e36565b61054e91610e60565b90508160405160200161056391815260200190565b60408051601f198184030181528282528051602091820120908301869052910160405160208183030381529060405280519060200120146105b65760405162461bcd60e51b815260040161042690610e7f565b60408051602081018390520160408051601f198184030181528282528051602091820120908301859052910160405160208183030381529060405280519060200120146106155760405162461bcd60e51b815260040161042690610e7f565b5050505050565b60005467ffffffffffffffff8481169116146106895760405162461bcd60e51b815260206004820152602660248201527f4178696f6d56323a2063616c6c657220736f75726365436861696e4964206d696044820152650e6dac2e8c6d60d31b6064820152608401610426565b6000546001600160a01b03838116600160401b90920416146106ed5760405162461bcd60e51b815260206004820181905260248201527f4178696f6d56323a2063616c6c65722061646472657373206d69736d617463686044820152606401610426565b60015481146103935760405162461bcd60e51b815260206004820152601e60248201527f4178696f6d56323a20717565727920736368656d61206d69736d6174636800006044820152606401610426565b600061074c82840184610b15565b905060008585600081811061076357610763610ec2565b90506020020135905060008686600181811061078157610781610ec2565b9050602002013560001c90506000878760028181106107a2576107a2610ec2565b60200291909101359150507f4627dbe6b61260f743b8c711823e81d7fcceda009cb16658e1cf79386a3e322883146108135760405162461bcd60e51b8152602060048201526014602482015273496e76616c6964206576656e7420736368656d6160601b6044820152606401610426565b836001600160a01b0316826001600160a01b03161461086b5760405162461bcd60e51b8152602060048201526014602482015273496e76616c69642075736572206164647265737360601b6044820152606401610426565b628954408163ffffffff16116108f35760405162461bcd60e51b815260206004820152604160248201527f426c6f636b206e756d62657220666f72207472616e73616374696f6e2072656360448201527f65697074206d7573742062652067726561746572207468616e203930303030306064820152600360fc1b608482015260a401610426565b6001600160a01b03841660008181526003602052604090819020805460ff19166001179055518a91907ffa99a4e1e73f4dfcea5d01dcada5b6fc07930c397f7081db0467d21593f9184f9061094f908c908c908c908c90610ed8565b60405180910390a3505050505050505050505050565b60006020828403121561097757600080fd5b5035919050565b60006020828403121561099057600080fd5b813567ffffffffffffffff8111156109a757600080fd5b820160e081850312156109b957600080fd5b9392505050565b803567ffffffffffffffff811681146109d857600080fd5b919050565b6001600160a01b03811681146109f257600080fd5b50565b60008083601f840112610a0757600080fd5b50813567ffffffffffffffff811115610a1f57600080fd5b602083019150836020828501011115610a3757600080fd5b9250929050565b60008060008060008060008060c0898b031215610a5a57600080fd5b610a63896109c0565b97506020890135610a73816109dd565b96506040890135955060608901359450608089013567ffffffffffffffff80821115610a9e57600080fd5b818b0191508b601f830112610ab257600080fd5b813581811115610ac157600080fd5b8c60208260051b8501011115610ad657600080fd5b6020830196508095505060a08b0135915080821115610af457600080fd5b50610b018b828c016109f5565b999c989b5096995094979396929594505050565b600060208284031215610b2757600080fd5b81356109b9816109dd565b6000808335601e19843603018112610b4957600080fd5b83018035915067ffffffffffffffff821115610b6457600080fd5b602001915036819003821315610a3757600080fd5b600060208284031215610b8b57600080fd5b6109b9826109c0565b60008235605e19833603018112610baa57600080fd5b9190910192915050565b60008235607e19833603018112610baa57600080fd5b600060208284031215610bdc57600080fd5b813563ffffffff811681146109b957600080fd5b803560ff811681146109d857600080fd5b81835260006001600160fb1b03831115610c1a57600080fd5b8260051b80836020870137939093016020019392505050565b6000808335601e19843603018112610c4a57600080fd5b830160208101925035905067ffffffffffffffff811115610c6a57600080fd5b803603821315610a3757600080fd5b81835281816020850137506000828201602090810191909152601f909101601f19169091010190565b60008135610caf816109dd565b6001600160a01b0316835260208201356001600160e01b03198116808214610cd657600080fd5b60208501525060ff610cea60408401610bf0565b166040840152610cfd6060830183610c33565b60806060860152610d12608086018284610c79565b95945050505050565b600067ffffffffffffffff808b16835289602084015260e0604084015260ff610d438a610bf0565b1660e08401526020890135601e198a3603018112610d6057600080fd5b890160208101903582811115610d7557600080fd5b8060051b3603821315610d8757600080fd5b6060610100860152610d9e61014086018284610c01565b92505050610daf60408a018a610c33565b84830360df1901610120860152610dc7838284610c79565b925050508281036060840152610ddd8189610ca2565b67ffffffffffffffff88166080850152905063ffffffff861660a084015282810360c0840152610e0e818587610c79565b9b9a5050505050505050505050565b600060208284031215610e2f57600080fd5b5051919050565b60008085851115610e4657600080fd5b83861115610e5357600080fd5b5050820193919092039150565b80356020831015610e7957600019602084900360031b1b165b92915050565b60208082526023908201527f747848617368657320666f722064617461517565727920646f206e6f74206d616040820152620e8c6d60eb1b606082015260800190565b634e487b7160e01b600052603260045260246000fd5b604081526000610eec604083018688610c01565b8281036020840152610eff818587610c79565b97965050505050505056fea2646970667358221220105451bdec55fbd43894b0da85b222f4dccdab12dd8216192877b58c5a58210d64736f6c63430008130033",
    "linkReferences": {}
  },
  "methodIdentifiers": {
    "axiomCallbackCallerAddr()": "45e1ef8d",
    "axiomCallbackQuerySchema()": "cd1cd725",
    "axiomV2Callback(uint64,address,bytes32,bytes32,bytes32[],bytes)": "51b17b29",
    "axiomV2QueryAddress()": "2a75d3be",
    "callbackSourceChainId()": "0a50ec5c",
    "claimAirdrop((uint64,bytes32,(uint8,bytes32[],bytes),(address,bytes4,uint8,bytes),uint64,uint32,bytes))": "1b50f734",
    "hasClaimed(address)": "73b2e80e",
    "querySubmitted(address)": "ab72fc09",
    "updateCallbackCallerAddr(address)": "da8c7e7a",
    "updateCallbackQuerySchema(bytes32)": "034606e0"
  },
  "id": 19
}